:020000040800F2
:1000000000000520CD190008091200081712000889
:100010001D12000823120008291200080000000029
:1000200000000000000000000000000051B70008C0
:100030002F12000800000000A1B900083D120008BE
:100040001D1A00081D1A00081D1A00081D1A0008B4
:100050001D1A00081D1A00081D1A00081D1A0008A4
:100060001D1A00081D1A00081D1A00081D1A000894
:100070001D1A0008891200081D1A00081D1A000820
:100080001D1A00081D1A00081D1A00081D1A000874
:100090001D1A00081D1A00081D1A00081D1A000864
:1000A0001D1A00081D1A00081D1A00081D1A000854
:1000B0001D1A00081D1A00081D1A00081D1A000844
:1000C0001D1A00081D1A00081D1A00081D1A000834
:1000D0001D1A00081D1A00081D1A00081D1A000824
:1000E0001D1A00081D1A00081D1A00081D1A000814
:1000F0001D1A00081D1A00081D1A00081D1A000804
:100100001D1A00081D1A00081D1A00081D1A0008F3
:100110001D1A00081D1A0008F51100081D1A000814
:100120001D1A00081D1A00081D1A00087112000887
:100130001D1A00081D1A00081D1A00081D1A0008C3
:100140001D1A00081D1A00081D1A0008491200088F
:100150001D1A00081D1A00081D1A00081D1A0008A3
:100160001D1A00081D1A00081D1A00081D1A000893
:100170001D1A00081D1A00081D1A000800000000C2
:100180001D1A00081D1A00081D1A00081D1A000873
:100190001D1A00081D1A00081D1A00081D1A000863
:1001A0005D1200081D1A00081D1A0008A11200089F
:0401B00001F600084C
:1001C00010B5054C237833B9044B13B10448AFF391
:1001D00000800123237010BD7C050020000000007A
:1001E0009853020808B5034B1BB103490348AFF30A
:1001F000008008BD00000000800500209853020820
:10020000034613F8012B002AFBD1181A0138704756
:1002100053B94AB9002908BF00281CBF4FF0FF316D
:100220004FF0FF3000F070B9ADF1080C6DE904CE6D
:1002300000F006F8DDF804E0DDE9022304B07047C1
:100240002DE9F047089E0D4604460F46002B4AD183
:100250008A42944665D9B2FA82F343B102FA03FCAA
:10026000C3F120029F4020FA02F217439C404FEA5C
:100270001C4E1FFA8CF5B7FBFEF1220C0EFB11771A
:1002800042EA074201FB05F090420AD91CEB020248
:1002900001F1FF3780F01C81904240F21981023950
:1002A0006244121AA4B2B2FBFEF00EFB102244EA22
:1002B000024400FB05F5A5420AD91CEB040400F139
:1002C000FF3280F00781A54240F204816444023885
:1002D00040EA0140641B00211EB1DC400023C6E956
:1002E0000043BDE8F0878B4208D9002E00F0ED8076
:1002F0000021C6E900050846BDE8F087B3FA83F19E
:10030000002949D1AB4202D3824200F2F880841A1C
:1003100065EB030201201746002EE2D0C6E9004734
:10032000DFE702B9FFDEB2FA82F3002B40F09080E3
:100330008A1A4FEA1C471FFA8CFE0121B2FBF7F51F
:1003400007FB1520220C42EA00420EFB05F090420A
:1003500008D91CEB020205F1FF3802D2904200F2EC
:10036000CB804546121AA4B2B2FBF7F007FB10226D
:1003700044EA02440EFB00FEA64508D91CEB040427
:1003800000F1FF3202D2A64500F2BB801046A4EB7A
:100390000E0440EA05409FE7C1F120078B4022FA96
:1003A00007FC4CEA030C05FA01F420FA07F3FD40C0
:1003B0004FEA1C492343B5FBF9F81FFA8CFE09FBF1
:1003C00018551C0C44EA054408FB0EF5A54202FA38
:1003D00001F200FA01F00BD91CEB040408F1FF3A1A
:1003E00080F08880A54240F28580A8F1020864442C
:1003F000641B9DB2B4FBF9F309FB134445EA0444C2
:1004000003FB0EFEA64508D91CEB040403F1FF35DF
:100410006CD2A6456AD9023B644443EA0843A3FB75
:100420000295A4EB0E04AC42C846AE4656D353D058
:1004300056B1B0EB080264EB0E0404FA07F7CA40A9
:10044000CC401743C6E9007418460021BDE8F08788
:10045000C3F1200102FA03FC20FA01F225FA01F1AE
:100460009D402A434FEA1C471FFA8CFEB1FBF7F070
:1004700007FB1015110C41EA054100FB0EF58D42FA
:1004800004FA03F408D91CEB010100F1FF382FD264
:100490008D422DD902386144491B92B2B1FBF7F568
:1004A00007FB151142EA014205FB0EF1914208D902
:1004B0001CEB020205F1FF3816D2914214D9023D1D
:1004C0006244521A45EA004138E73146304608E7AF
:1004D0003946E6E61046FBE64845A9D2B9EB0208E4
:1004E00065EB0C0E013BA3E74546EAE72B4694E794
:1004F0004046D1E7D0467BE7023D624432E70846FA
:100500000AE76444023842E7704700BF80B584B010
:1005100000AF78607B681B680F2B02D0262B07D0BA
:100520007BE06FF07F4011F03DF911F08BFA78E03D
:100530007B689B6818461AF0A3FE0346FB607B6845
:10054000DB68BB60BB68022B03D0BB68072B53D0B2
:1005500062E0FB68B3F5006F5DD17B689B6818466D
:1005600024F046FB0346DAB2304B1A7000F0D0F9A3
:1005700003461A462D4B1B789A4237D97B689B68F5
:100580004FF0FF31184624F047FB284B1B78284AD0
:10059000DB0013441B79002B13D1244B1B781A4624
:1005A000234B53F832301B697A68506800220021CF
:1005B00098471E4B1B781E4ADB00134401221A7118
:1005C00029E01A4B1B781A4ADB0013445B79012B94
:1005D00021D1164B1B781A46154B53F832301B6944
:1005E0007A68506800220021984714E07B689B6875
:1005F000184619F0ADFC0EE00C4B1B780C4ADB00E2
:10060000134400221A71094B1B78094ADB0013447A
:1006100000225A7100E000BF03E078681AF07EFA09
:1006200000BF00BF1037BD4680BD00BF9C09002041
:10063000A009002080B500AF40481CF0F9FB4048FD
:100640001CF01AFE6FF07F4100201DF017F86FF0CC
:100650007F4101201DF012F83A4900201CF0F2FF02
:10066000384901201CF0EEFF37481CF0E5FF6FF021
:100670007F401CF0F1FF23201CF0FAFF6FF07F4059
:100680001EF068F86FF07F401DF0ACFB2D49012093
:100690001DF09CFB2B4901201CF090FD2B490220F2
:1006A0001DF094FB274900201DF082FB2549022004
:1006B0001CF084FD18201DF0A3FB23F011FB214842
:1006C0001DF00AFB6FF07F401DF00EFB1E481DF071
:1006D00013FB1D481CF06CFD1B481DF061FB23F053
:1006E000E1F9002117481DF093FB012115481DF089
:1006F0008FFB022113481DF08BFB2F2022F0F4FF0B
:1007000028213C2022F0E2FF00221149022022F0A1
:10071000E3FF104A1049012022F0DEFF00220F49BA
:10072000002022F0D9FF084811F050F905481DF0CB
:100730007DFC05481DF074FC00BF80BD55CE01084E
:100740009DD2010839A9DC00CC8B020800205200A0
:10075000D4BF070898E4070840D30708F8C907087A
:10076000B0B58AB008AF0023FB7100201AF0AAFCD4
:100770000346524918461AF013FF14F0CBFB034608
:10078000A3F19B0414F0DCFB0346A3F13205002027
:100790001AF098FC03460522079214220692B4220E
:1007A0000592962204924FF4006203920022029274
:1007B00041F20302019200932B46224600210020C1
:1007C00024F0CEF803463E4A13603D4B1B683D4A79
:1007D0003C49184624F0AAF9394B1B68052201212F
:1007E000184624F0E3F9364B1B6805220021184611
:1007F00024F0DCF9324B1B681E220121184624F03C
:10080000B3F92F4B1B680A220021184624F0ACF9DB
:100810002B4B1B682C4A0021184624F043F9284B27
:100820001B686FF07F420021184624F021F9244B09
:100830001B686FF07F420121184624F019F9204B04
:100840001B684FF0FF31184624F0E6F91C4B18687E
:100850001E4B1D4A012124F043F90023FB7115E0D2
:10086000174B1868FB791A4A52F833309968FB79AC
:10087000174A52F83330DA68FB79154C54F83330A4
:100880005B6824F0FBF9FB790133FB7100F040F861
:1008900003461A46FB799342E2D300201AF012FC79
:1008A00000234FF4617200211BF030FB0346094A1C
:1008B000136000BF0837BD46B0BD00BF0D0500087E
:1008C00094090020CC8B020839A9DC0000205200DA
:1008D000A00900209809002080B500AF084B002235
:1008E0001A80084B00221A8078220021064824F042
:1008F00011FD78220021054824F00CFD00BF80BDC9
:10090000900A0020920A0020A0090020180A002066
:1009100080B400AF034B1B88DBB21846BD465DF8C0
:10092000047B7047900A002080B483B000AF7860E9
:10093000104B1B88104ADB00134400221A710D4B28
:100940001B880D4ADB00134400225A71094B1B8897
:100950001946094A7B6842F83130064B1B8801333F
:100960009AB2044B1A80002318460C37BD465DF836
:10097000047B7047900A0020A0090020B0B588B021
:1009800000AFAA23FB610A237B611D4B3C461D4639
:100990000FCD0FC42B6823703B46BB614AF2FF505A
:1009A00010F000FF11F04EF8164810F069FF00201B
:1009B00010F004FFBB691B789BB2FA6911B2642284
:1009C000184611F041FBBB695A1CBA611B789BB2F7
:1009D000184610F00DFD03461A467B691344013397
:1009E000FA691344FB61642012F050FABB691B786A
:1009F000002BDFD100BF00BF2037BD46B0BD00BF18
:100A0000B053020874A0050880B582B000AF01F0B1
:100A10004FFD01F0ADFD01F099FF00F0CDF864202D
:100A200002F068FB4FF4F0714FF4487002F072F975
:100A300000237B600E4B1B6B0D4A43F48053136302
:100A40000B4B1B6B03F480537B607B6800233B6084
:100A5000074B1B6B064A43F480231363044B1B6B49
:100A600003F480233B603B6800BF0837BD4680BD70
:100A70000038024090B585B000AF3B46184602F002
:100A8000ADF97B889BB21C4614F044FA03469C42A5
:100A900007DAFB889BB21C4614F052FA03469C42CC
:100AA00003DB00237B800023FB803F4B1B687A889D
:100AB00092B2934207DD3C4B1B689AB27B889BB293
:100AC000D31A9BB206E07B889AB2374B1B689BB265
:100AD000D31A9BB2FB81344B5B68FA8892B2934283
:100AE00007DD314B5B689AB2FB889BB2D31A9BB28D
:100AF00006E0FB889AB22C4B5B689BB2D31A9BB280
:100B0000BB81294B1A7A3B78DBB29A4205D1FB892B
:100B1000142B02D8BB89142B41D93B78DAB2224B73
:100B20001A72224B1A78204B5A723B78DBB2002B98
:100B30002CD07B889BB21A461B4B1A601C4B1B782F
:100B4000542B1AD1FB889BB2EF2B05D8FB889BB2A4
:100B50001A46154B5A6015E0FB889BB21A4613469D
:100B60001B019B1A5B01134A82FB03121A441212E7
:100B7000DB17D31A0C4A536004E0FB889BB21A4679
:100B8000094B5A60084812F065F808E0064812F070
:100B900061F8054B00221A60034B00225A6000BF27
:100BA0001437BD4690BD00BF940A0020EC8200209F
:100BB0004D850020C5B3A29180B586B000AF00235B
:100BC0003B60154B1B6B144A43F080031363124BBD
:100BD0001B6B03F080033B603B6880237B60012339
:100BE000BB600023FB6001233B613B1D19460B48A2
:100BF00003F0FEFC00228021084803F0A5FE14202B
:100C000002F078FA01228021044803F09DFE00BF23
:100C10001837BD4680BD00BF00380240001C0240AE
:100C2000B0B586B000AF02F023FA00F055F800F03E
:100C3000C7F8FFF7E9FE0B4B3C1D1D460FCD0FC457
:100C40002B6823603B1D002118460AF092F9FFF73C
:100C500043FE0548FFF768FE0448FFF765FE0AF00B
:100C600071F9FEE7D0530208D404002000050020EB
:100C700080B582B000AF10F065FF0021012011F0B7
:100C8000DBFFFFF7D7FCFFF779FE0C4B7B603B1DCA
:100C90000022012118460AF0AFF90346084A136002
:100CA000074B1B681E2118460AF0C2F9FFF758FDD2
:100CB00010F098FC1E200AF08AF9F9E7C50C00082C
:100CC000A00A002080B582B000AF7860FFF7D2FEA6
:100CD00000BF0837BD4680BD80B5A4B000AF00237B
:100CE000BB60354B1B6C344A43F080531364324B6A
:100CF0001B6C03F08053BB60BB6800237B602F4BF1
:100D00001B682E4A43F4404313602C4B1B6803F4CA
:100D100040437B607B680123BB644FF48033FB64FA
:100D200002233B664FF480037B660823BB664FF4C7
:100D3000B473FB6602233B6707237B670623BB670D
:100D400007F14803184608F0DDFE0346002B00D0EB
:100D5000FEE707F0F7F90346002B00D0FEE78023FB
:100D6000FB604FF000633B644FF4C073FB610823EA
:100D70003B6207F10C03184608F086FC0F23FB6763
:100D80000223C7F880300023C7F884304FF4A05303
:100D9000C7F888304FF48053C7F88C3007F17C03D4
:100DA0000521184608F032FA0346002B00D0FEE772
:100DB00000BF9037BD4680BD003802400070004043
:100DC00080B590B000AF07F12C0300221A605A6082
:100DD0009A60DA601A610023BB62AF4B1B6BAE4AAC
:100DE00043F010031363AC4B1B6B03F01003BB62A7
:100DF000BB6A00237B62A84B1B6BA74A43F04003EE
:100E00001363A54B1B6B03F040037B627B6A0023DB
:100E10003B62A14B1B6BA04A43F0020313639E4B42
:100E20001B6B03F002033B623B6A0023FB619A4B9E
:100E30001B6B994A43F004031363974B1B6B03F03E
:100E40000403FB61FB690023BB61934B1B6B924A5C
:100E500043F001031363904B1B6B03F00103BB6171
:100E6000BB6900237B618C4B1B6B8B4A43F00803EF
:100E70001363894B1B6B03F008037B617B690023C1
:100E80003B61854B1B6B844A43F480731363824B35
:100E90001B6B03F480733B613B690023FB607E4B5B
:100EA0001B6B7D4A43F0200313637B4B1B6B03F0EA
:100EB0002003FB60FB680023BB60774B1B6B764A0B
:100EC00043F480631363744B1B6B03F48063BB6058
:100ED000BB6800237B60704B1B6B6F4A43F0800341
:100EE00013636D4B1B6B03F080037B607B680023F7
:100EF0003B60694B1B6B684A43F400731363664B9A
:100F00001B6B03F400733B603B6800220C216348B9
:100F100003F01AFD00223021614803F015FD002284
:100F20000821604803F010FD002240215E4803F0D4
:100F30000BFD002205215D4803F006FD0022012182
:100F40005B4803F001FD002280215A4803F0FCFCBD
:100F500000220821564803F0F7FC0C23FB62012312
:100F60003B6300237B630023BB6307F12C0319461B
:100F70004A4803F03DFB0823FB6202233B63002346
:100F80007B630023BB630623FB6307F12C03194635
:100F9000464803F02DFB8023FB624FF488133B632C
:100FA00000237B6307F12C031946404803F020FB24
:100FB0003023FB6211233B6300237B630023BB636D
:100FC00007F12C031946364803F012FB0823FB6295
:100FD00011233B6300237B630023BB6307F12C03D6
:100FE0001946304803F004FB4023FB6211233B63A6
:100FF00000237B630023BB6307F12C0319462A48B7
:1010000003F0F6FA0523FB6201233B6300237B63B5
:101010000023BB6307F12C031946244803F0E8FAC8
:101020000123FB624FF488133B6300237B6300239F
:10103000BB6307F12C0319461D4803F0D9FA0022BF
:101040000221062002F032F9062002F04BF94FF49B
:101050000053FB6202233B6300237B630023BB63DB
:101060000223FB6307F12C0319460D4803F0C0FA75
:101070000423FB6200233B6300237B6307F12C0303
:101080001946094803F0B4FA2023FB624FF4881391
:101090003B63002310E000BF003802400010024014
:1010A000000C0240002802400018024000040240E8
:1010B00000000240001C02407B6307F12C0319462C
:1010C000114803F095FA8023FB6201233B63002360
:1010D0007B630023BB6307F12C0319460B4803F025
:1010E00087FA0823FB6201233B6300237B63002311
:1010F000BB6307F12C031946054803F079FA00BFDA
:101100004037BD4680BD00BF00240240001C0240A5
:101110000000024080B58CB000AF78600023BB6255
:1011200000237B6200227968362002F0BFF8362067
:1011300002F0D8F80023BB60254B1B6C244A43F017
:1011400010031364224B1B6C03F01003BB60BB68DD
:1011500007F10C0207F110031146184608F062FA75
:10116000FB69BB62BB6A002B03D108F047FAF86247
:1011700004E008F043FA03465B00FB62FB6A154A91
:10118000A2FB03239B0C013B7B62134B134A1A60A7
:10119000114B40F2E732DA600F4A7B6A53600E4B24
:1011A00000221A610C4B00229A600B4B00229A61BC
:1011B000094808F0C6FF0346002B04D1064809F091
:1011C00019F8034600E0012318463037BD4680BDBC
:1011D0000038024083DE1B43A48200200010004040
:1011E00080B582B000AF786001F064FF00BF0837BF
:1011F000BD4680BD80B500AF024809F06BF800BF66
:1012000080BD00BFA482002080B400AF00BFBD46F7
:101210005DF8047B704780B400AFFEE780B400AF98
:10122000FEE780B400AFFEE780B400AFFEE780B415
:1012300000AF00BFBD465DF8047B704780B500AFCE
:101240000AF02EF800BF80BD80B500AF024803F061
:10125000AEFB00BF80BD00BF2859032080B500AFA2
:10126000024806F0E2FA00BF80BD00BF9857032095
:1012700080B500AF034B1B6F184602F0DFF900BFCB
:1012800080BD00BF6C83002080B500AF034BDB6BDB
:10129000184602F0D3F900BF80BD00BFF4830020E0
:1012A00080B500AF024807F051F800BF80BD00BF15
:1012B0003C84002080B582B000AF78601CF0D2F989
:1012C0000346184610F06EFA10F0BCFB4AF2FF50CD
:1012D00010F074FA4FF49672002100200EF0B4FB67
:1012E0004AF2FF5010F05EFA6FF07F4010F066FA9D
:1012F000054810F0C5FA14221421044811F01CF816
:1013000000BF0837BD4680BDCC8B020824540208BC
:1013100080B582B000AF78607B681B680F2B05D169
:101320007B685B681846FFF7C5FF03E078681BF031
:10133000DFFB00BF00BF0837BD4680BD80B584B06D
:1013400000AF78601CF08EF90346184610F02AFAB8
:1013500010F078FB78681CF0C5FE034603F4807338
:10136000002B14BF01230023DBB2FB60FB68002BC2
:1013700007D00A220021084811F048F900F0A8F926
:1013800005E06FF009020021044811F03FF900BFA9
:101390001037BD4680BD00BF38E5070860E5070887
:1013A00080B582B000AF78607B681B680F2B05D1D9
:1013B0007B685B681846FFF7C1FF03E078681BF0A5
:1013C00097FB00BF00BF0837BD4680BD80B584B025
:1013D00000AF78601CF046F90346184610F0E2F9B9
:1013E00010F030FB78681CF07DFE034603F4807338
:1013F000002B14BF01230023DBB2FB60FB68002B32
:1014000007D00A220021084811F000F900F074F911
:1014100005E06FF009020021044811F0F7F800BF61
:101420001037BD4680BD00BF24E5070810E507085A
:1014300080B582B000AF78607B681B680F2B05D148
:101440007B685B681846FFF7C1FF03E078681BF014
:101450004FFB00BF00BF0837BD4680BD80B584B0DC
:1014600000AF78601CF0FEF80346184610F09AF9B9
:1014700010F0E8FA78681CF035FE034603F4807338
:10148000002B14BF01230023DBB2FB60FB68002BA1
:1014900007D00A220021084811F0B8F800F004F93A
:1014A00005E06FF009020021044811F0AFF800BF19
:1014B0001037BD4680BD00BF4CE5070874E507083E
:1014C00080B582B000AF78607B681B680F2B05D1B8
:1014D0007B685B681846FFF7C1FF03E078681BF084
:1014E00007FB00BF00BF0837BD4680BD80B58AB08E
:1014F00004AF78607B681B68262B5DD0262B75DCDB
:101500000F2B77D01D2B71D17B685B6840F60802EA
:101510000392002202920222019200936423642229
:1015200000214FF42F701BF09BFBF8603549F868E1
:101530001AF036F87B685B6840F6050203920022D9
:101540000292022201920093B423B4229621322007
:101550001BF086FBF8602C49F8681AF021F87B68CC
:101560005B6840F606020392002202920222019278
:101570000093B423B4228C214FF49B701BF070FBBA
:10158000F8602249F8681AF00BF87B685B6840F64F
:101590000702039200220292022201920093B423D6
:1015A000B4228C2140F23A201BF05AFBF860184913
:1015B000F86819F0F5FF20E07B689B68184619F081
:1015C0005FFE78617B68DB683B617B6940F60802FF
:1015D000934211D13B69022B06D17B685B680021E5
:1015E00018461BF0C9FD00BF00BF05E0786819F080
:1015F00095FA02E000BF00E000BF00BF1837BD460B
:1016000080BD00BF11130008A113000831140008A9
:10161000C114000880B584B002AF78600B467B80AF
:1016200013463B807B883A88019200937B68044A8A
:10163000052104481BF03CFD00BF0837BD4680BDB6
:10164000ED14000888E5070880B500AF002280216E
:10165000024803F079F90123184680BD001C0240BE
:1016600080B500AF2021054803F087F90821044820
:1016700003F083F90123184680BD00BF000C02402F
:101680000028024080B500AF4021054803F075F9FD
:101690001021044803F071F90123184680BD00BFF2
:1016A00000180240000C024080B582B000AFFFF786
:1016B000CBFF78607B68012B03D04021034803F007
:1016C0005CF900BF0837BD4680BD00BF001802406E
:1016D00080B582B000AFFFF7C3FF78607B68012B55
:1016E00003D04021034803F048F900BF0837BD4646
:1016F00080BD00BF0018024080B582B000AFFFF788
:10170000C1FF78607B68012B03D04021034803F0C0
:1017100034F900BF0837BD4680BD00BF0018024045
:1017200080B582B000AF78601BF09CFF034618467E
:1017300010F038F810F086F94AF2FF5010F03EF839
:101740004FF49672002100200EF07EF94AF2FF500D
:1017500010F028F86FF07F4010F030F8054810F0D6
:101760008FF814221421044810F0E6FD00BF08375A
:10177000BD4680BDCC8B02087C54020880B582B087
:1017800000AF78607B681B680F2B05D17B685B68B6
:101790001846FFF7C5FF03E078681BF0A9F900BF02
:1017A00000BF0837BD4680BD80B58AB004AF786001
:1017B0007B681B6840F21312934200F08E80B3F5F1
:1017C0008A7F80F2D1801D2B03D0262B00F0A780CA
:1017D000CAE06B4B00221A607B68586800233222F3
:1017E00000211AF093FB0346664A13607B685B682E
:1017F0004FF40262039200220292022201920093AD
:101800006423642200214FF42F701BF029FAF86042
:101810005D49F86819F0C4FE7B685B6840F6020118
:10182000184619F0ADFCF8605849F8681CF0C4FB84
:101830005749F8681CF0DAFB7B685B6840F60401E6
:10184000184619F09DFCF8605049F8681CF0B4FB8C
:101850004F49F8681CF0CAFB7B685B6840F60501DD
:10186000184619F08DFCF8604849F8681CF0A4FB94
:101870004749F8681CF0BAFB7B685B6840F60701D3
:10188000184619F07DFCF8604049F8681CF094FB9C
:101890004049F8681CF0AAFB7B685B6840F60901C8
:1018A000184619F06DFCF8603849F8681CF084FBA4
:1018B0003849F8681CF09AFB7B685B6840F60A01BF
:1018C000184619F05DFCF8603049F8681CF074FBAC
:1018D0003049F8681CF08AFB4DE0294B1B68032B4C
:1018E00010D87B685B68184618F032FB7B68DB68B1
:1018F000322118461AF04AFB214B1B680133204A5B
:10190000136035E01F4B1B68002B31D01D4B1B684B
:1019100018461AF0DFFA1B4B00221A6028E07B6899
:101920009B68184619F0ACFC78617B68DB683B610A
:101930007B69B3F5026F1DD13B69022B12D1114BAC
:101940001B68002B07D00F4B1B6818461AF0C2FA11
:101950000C4B00221A607B685B68002118461BF064
:101960000BFC00BF00BF05E0786819F0D7F802E073
:1019700000BF00E000BF00BF1837BD4680BD00BFFC
:10198000F4820020F08200207D170008CC8B020832
:101990000020520039A9DC0080B584B002AF786025
:1019A0000B467B8013463B807B883A8801920093EC
:1019B0007B68044A082104481BF07AFB00BF083703
:1019C000BD4680BDA917000878E60708DFF834D0C7
:1019D0000D480E490E4A002302E0D458C450043387
:1019E000C4188C42F9D30B4A0B4C002301E013605E
:1019F0000432A242FBD301F005FB23F093FCFFF776
:101A00000FF9704700000520000000207C05002031
:101A10001CE807087C050020BC5E0320FEE70000F0
:101A200080B500AF054B1B68002B04D10BF008FEFE
:101A30000346024A136000BF80BD00BFF882002049
:101A400080B400AF144B1B685A1C13490A60B3F5ED
:101A50007A7F1BDD104B00221A60104B1B68B3F518
:101A60007A7F03D90D4B4FF47A721A600B4B1B68C7
:101A7000642202FB03F30A4AA2FB03239B09C3F17E
:101A80006403084A1360054B00221A6000BFBD467C
:101A90005DF8047B704700BF0C83002008830020A2
:101AA000D34D6210FC82002080B500AF0BF0C8FD62
:101AB0000246054B1B689A4204D10BF0A3FA034679
:101AC000024A136000BF80BDF8820020008300201E
:101AD00080B500AF0BF0B4FD02460A4B1B689A427A
:101AE0000ED10BF08FFA0246074B1B68D31A074A38
:101AF0001360074B1A68054B1B681344044A1360B4
:101B000000BF80BDF88200200083002004830020F5
:101B10000883002080B584B000AF0346FB80FB88BB
:101B2000184600F00DF90346FB73FB7BFF2B0ED12B
:101B3000002000F005F90346BB73BB7B012B06D8E0
:101B4000BB7BFA88D1B2044AD15400F05FFC00BFDD
:101B50001037BD4680BD00BF1083002080B483B025
:101B600000AF0346FB8000BF0C37BD465DF8047B29
:101B7000704780B582B000AF0346FB8000F046FCA2
:101B8000FB88DBB2A821184600F059FC03469BB243
:101B900018460837BD4680BD80B582B000AF034609
:101BA000FB80FB88184600F0BCF8FB88184600F064
:101BB0008DF800BF0837BD4680BD000080B584B0F9
:101BC00000AF0346FB800023FB73FB88DBB20221DE
:101BD000184600F034FC0346FB73FB7BDBB203F0DA
:101BE0000F03DBB2FB73FB7BDBB2022B01D90023BB
:101BF000FB73FB7BDAB2054B5A70044B00229A70E0
:101C0000FB7BDBB218461037BD4680BD1483002035
:101C100080B586B000AF0346B9607A60FB810023CF
:101C2000FB751F4B9A781E4B5B789A4234D21C4B43
:101C30009B78002B02D0012B03D005E00323FB751A
:101C400002E00923FB7500BFFB89D8B207F110023F
:101C5000F97D042300F006FC3B7C1B021BB203F45D
:101C600070631AB27B7C1BB213431BB29AB2BB687F
:101C70001A80BB7C1B021BB203F470631AB2FB7C9C
:101C80001BB213431BB29AB27B681A80044B9B7839
:101C90000133DAB2024B9A7000BF1837BD4680BDDF
:101CA0001483002080B584B000AF0346FB8000237E
:101CB000FB730123FB73FB88DBB2FA7BA42118467C
:101CC00000F0AAFB00BF1037BD4680BD80B584B0D0
:101CD00000AF0346FB800023FB730023FB73FB88EC
:101CE000DBB2FA7BA421184600F096FB00BF103748
:101CF000BD4680BD80B483B000AF0346FB800023A7
:101D000018460C37BD465DF8047B704780B483B03D
:101D100000AF0346FB8000BF0C37BD465DF8047B77
:101D2000704780B485B000AF0346FB800023FB60A2
:101D3000FB6818461437BD465DF8047B7047000009
:101D400080B485B000AF0346FB800023FB73002303
:101D5000FB730BE0FB7B0A4AD35C9BB2FA889A4286
:101D600001D1FB7B06E0FB7B0133FB73FB7B012B8B
:101D7000F0D9FF2318461437BD465DF8047B704741
:101D80001083002080B5B2B000AF78603960782051
:101D900000F082FBC84A07F1C00392E80300186014
:101DA00004331980C54BC7F8BC30C54BC7F8B830F1
:101DB000C44BC7F8B430C44BC7F8B030C34BC7F8F6
:101DC000AC30C34BC7F8A83040F2BF13A7F8A4301B
:101DD000C04BC7F8A030C04BC7F89C30BF4BC7F80A
:101DE0009830BF4BC7F89430BE4BC7F89030BE4B0D
:101DF000C7F88C30BD4A07F1880312681146198074
:101E00000233120C1A70BA4A07F1800392E80300F9
:101E1000186004331980B74A07F17C031268114631
:101E200019800233120C1A7040F2B633A7F87830DA
:101E300045F2B513A7F87430AF4A07F17003126882
:101E4000114619800233120C1A70AC4A07F168036C
:101E500092E803001860043319704FF03C437B662E
:101E6000A74B3B664FF4DD73A7F85C303623A7F829
:101E70005830A44A07F1500392E803001860043375
:101E80001970A14A07F1480392E80300186004336F
:101E9000197046F23603A7F844309C4A07F13C0318
:101EA00092E80300186004331970994A07F134036B
:101EB00092E8030018600433197035233B86112320
:101EC000BB8529233B8547F65173BB8442F65343B8
:101ED0003B8440F25523BB834FF65E733B832C2338
:101EE000BB8245F23A533B8247F23A73BB8107F11A
:101EF000C003194605200CF04FF907F1BC03194641
:101F000003200CF049F907F1B803194603200CF03F
:101F100043F907F1B403194603200CF03DF907F12A
:101F2000B003194603200CF037F907F1AC0319464A
:101F300003200CF031F907F1A803194603200CF037
:101F40002BF907F1A403194601200CF025F907F13C
:101F5000A003194603200CF01FF907F19C03194652
:101F600003200CF019F907F19803194603200CF02F
:101F700013F907F19403194603200CF00DF907F14A
:101F80009003194603200CF007F907F18C0319465A
:101F900003200CF001F907F18803194602200CF028
:101FA000FBF807F18003194605200CF0F5F807F15E
:101FB0007C03194602200CF0EFF807F1780319466C
:101FC00001200CF0E9F807F17403194601200CF028
:101FD000E3F807F17003194602200CF0DDF807F171
:101FE0006803194604200CF0D7F807F1640319467A
:101FF00003200CF0D1F807F16003194603200CF020
:10200000CBF807F15C03194601200CF0C5F807F185
:102010003003194600200CF0BFF807F10C031946F5
:1020200000200CF0B9F8C82000F036FA3B68002B0D
:1020300012D107F15803194601200CF0ADF807F151
:102040005003194604200CF0A7F807F1480319467D
:1020500004200CF0A1F811E007F144031946012017
:102060000CF09AF807F13C03194604200CF094F8A0
:1020700007F13403194604200CF08EF807F12C0305
:10208000194600200CF088F8782000F005FA7B68EB
:10209000002B09D07B68022B3CD107F110031946B5
:1020A00001200CF079F83CE007F10C0319460120FF
:1020B0000CF072F835E000BF84540208030303B04B
:1020C000464646B6030303B1363636B7000002B2C1
:1020D000262626B8090909B3363636B9080808B5E0
:1020E000262626BA008000BC008000BD8C54020861
:1020F00090540208985402089C540208A054020804
:10210000030000CCA8540208B0540208B8540208D6
:10211000C054020807F10C03194601200CF03CF8EA
:1021200000BF07F12403194601200CF035F807F130
:102130002003194601200CF02FF807F11C03194663
:1021400001200CF029F807F11803194601200CF0C2
:1021500023F807F12803194600200CF01DF807F1B9
:102160001403194600200CF017F800231846C8374E
:10217000BD4680BD80B588B000AF00237B60404B7A
:102180001B6B3F4A43F0020313633D4B1B6B03F091
:1021900002037B607B684FF48073BB601123FB609C
:1021A00000233B6102237B610023BB6107F108032D
:1021B0001946344802F01CFA0A23FB7714E0012286
:1021C0004FF480712F4802F0BFFB012000F092FF16
:1021D00000224FF480712B4802F0B6FB012000F082
:1021E00089FFFB7F013BFB77FB7F002BE7D14FF49F
:1021F0008073BB601223FB6000233B6102237B6181
:102200000423BB6107F1080319461E4802F0F0F9E8
:102210004FF40073BB6007F108031946194802F038
:10222000E7F900233B60164B1B6C154A43F400137F
:102230001364134B1B6C03F400133B603B68104B9F
:102240001B6A0F4A43F4001313620D4B1B6A0C4ABE
:1022500023F400131362002205211F2001F026F849
:102260001F2001F03FF800220521202001F01EF878
:10227000202001F037F800BF2037BD4680BD00BFE9
:10228000003802400004024080B500AF144804F05A
:10229000CFFD0346002B20D1114B124A1A60104B80
:1022A000114A5A600E4B00229A600D4B0022DA60F0
:1022B0000B4B4FF480421A61094B00225A61084BC4
:1022C00000229A61064B0022DA61054B00221A6255
:1022D000FFF750FF024804F0F7F800BF80BD00BFD1
:1022E0001883002000540040801A060080B588B092
:1022F00004AF0346FB710B46BB7113467B71002391
:10230000FB73FB7999B2BB799AB2642302930123E0
:1023100001937B1D00930123074804F05DFA0346F7
:10232000FB73FB7B002B03D0FB79184600F05EF8B3
:1023300000BF1037BD4680BD1883002080B588B02F
:1023400004AF03460A46FB711346BB710023FB73BF
:102350000023BB73FB7999B2BB799AB24FF47A73BD
:1023600002930123019307F10E0300930123084810
:1023700004F02CFB0346FB73FB7B002B03D0FB79A3
:10238000184600F033F8BB7B18461037BD4680BDB9
:102390001883002080B58AB004AF7B600346FB73CE
:1023A0000B46BB8113467B810023FB75FB7B99B2F7
:1023B0007889BA894FF47A7302933B8C01937B68D6
:1023C00000930346084804F001FB0346FB75FB7DC0
:1023D000002B03D0FB7B184600F008F8FB7D184665
:1023E0001837BD4680BD00BF1883002080B582B07D
:1023F00000AF0346FB71044804F0AAF9FFF744FF5D
:1024000000BF0837BD4680BD1883002080B500AFEF
:10241000FFF73AFF00BF80BD80B582B000AF034632
:10242000FB710B46BB7113467B717A79B979FB79E5
:102430001846FFF75BFF00BF0837BD4680BD80B57B
:1024400082B000AF03460A46FB711346BB71BA79EE
:10245000FB7911461846FFF771FF03461846083707
:10246000BD4680BD80B584B002AF3A601A460346CF
:10247000FB710B46BB711346BB80BB7999B2F879EF
:10248000BB8800933B680122FFF784FF03469BB2A1
:1024900018460837BD4680BD80B582B000AF786071
:1024A000786800F027FE00BF0837BD4680BD0000F9
:1024B00080B584B000AF2C4B2C4A1A602A4805F036
:1024C0000DFF0346002B01D0012348E000212648E0
:1024D00000F07EF8244B01225A60234B01229A60BF
:1024E000214B1022DA604FF08073BB60BB6893FA17
:1024F000A3F37B607B68FB60FB68002B01D120238A
:1025000003E0FB68B3FA83F3DBB2013B1A46164BD8
:102510001A61154B4FF480625A61134B00229A6185
:10252000114B0022DA61104B00221A620E4805F0AE
:1025300059FE0346002B01D0012310E00A4800F0A9
:10254000C7F80346002B01D0042308E0064800F03A
:1025500001F90346002B01D0042300E000231846B4
:102560001037BD4680BD00BF3C840020001000A095
:1025700080B590B000AF4FF480733B62EB23BB603B
:102580004FF440637B624FF400537B610023BB62D6
:102590004FF04073FB620A23FB6100237B6300233F
:1025A000BB630023FB6300237B603A4607F108030B
:1025B0001946064806F098FA0346002B01D001237D
:1025C00000E0002318464037BD4680BD3C84002013
:1025D00080B58AB000AF7860396000233B61394B29
:1025E0009B6B384A43F002039363364B9B6B03F0BB
:1025F00002033B613B69334B9B69324A43F0020360
:102600009361304B9B692F4A23F0020393610023AF
:10261000FB602C4B1B6B2B4A43F002031363294BCB
:102620001B6B03F00203FB60FB680023BB60254BC0
:102630001B6B244A43F020031363224B1B6B03F0F4
:102640002003BB60BB6840237B610223BB61012385
:10265000FB6103233B620A237B6207F114031946E3
:10266000194801F0C5FF4FF480637B610023FB61D3
:1026700009237B6207F114031946144801F0B8FFDF
:102680004FF440737B610A237B6207F11403194600
:102690000E4801F0ADFFC0237B6109237B6207F187
:1026A00014031946094801F0A3FF00220F215B2003
:1026B00000F0FCFD5B2000F015FE00BF2837BD4692
:1026C00080BD00BF003802400004024000140240F8
:1026D00080B590B000AF78604FF480733B626623A2
:1026E000BB6000237B620023BB620023FB620023EC
:1026F000FB6100237B630023BB630023FB6307F1C3
:10270000080341F288321946786805F0DFFF034676
:10271000002B01D0012319E09923BB6007F10803C6
:1027200041F288321946786805F0D0FF0346002B45
:1027300001D001230AE041F28831786800F0CEF838
:102740000346002B01D0012300E000231846403748
:10275000BD4680BD80B594B000AF78604FF4807303
:102760007B628523FB600023BB620023FB624FF08A
:1027700080733B6300233B6201237B630023BB63C5
:102780000023FB6300233B6407F10C0341F2883212
:102790001946786805F09AFF0346002B01D0012303
:1027A0004FE007F10B0341F288321946786806F0D2
:1027B00082F80346002B01D0012342E0786800F044
:1027C00044F80346002B01D001233AE08123FB604B
:1027D000FB7A5BB203F00F035AB2F023BB64BB6C0D
:1027E00093FAA3F37B647B6CFB64FB6C002B01D13D
:1027F000202303E0FB6CB3FA83F3DBB219460A2310
:102800008B405BB213435BB2DBB2FB7207F10C038C
:1028100041F288321946786805F058FF0346002BCC
:1028200001D001230DE007F10B0341F28832194674
:10283000786805F0A9FF0346002B01D0012300E0D2
:10284000002318465037BD4680BD80B596B000AF16
:1028500078604FF48073BB6306233B620023FB6305
:1028600000233B6400237B6400237B630023FB6421
:1028700000233B6500237B6507F1200341F288328A
:102880001946786805F022FF0346002B01D001238A
:1028900020E00223BB600223FB600023BB61012315
:1028A0007B6110233B614FF48003FB6105233B6296
:1028B0004FF080737B6407F1080207F1200141F2B9
:1028C0008833786806F099F80346002B01D001237D
:1028D00000E0002318465837BD4680BD80B596B04D
:1028E00000AF786039604FF48073BB6305233B62AF
:1028F0000023FB6300233B644FF080737B64002361
:102900007B630023FB6400233B6500237B6500237E
:10291000BB600123FB600023BB6101237B611023AB
:102920003B614FF48003FB6107F1080207F12001CE
:102930003B68786806F061F80346002B01D001235C
:1029400000E0002318465837BD4680BD80B500AF73
:10295000294B2A4A1A602A4B02221A60284B072266
:102960005A60274B04229A60254B0722DA60244BD9
:1029700002221A61224B02225A61214B02229A61E1
:102980001D4B00225A601C4B00229A601A4B0422F5
:10299000DA60194B20221A61174B40225A61164BFC
:1029A0004FF4C0729A61144B0022DA61124B4FF45B
:1029B00000621A62104B4FF480525A620E4B002292
:1029C0009A6200210C4800F07FF80D490A4807F090
:1029D0001DFB0346002B03D00A4B01221A7002E0B4
:1029E000084B00221A7040F2695000F00DF8054BB8
:1029F0001B78184680BD00BF88840020400100A0DD
:102A0000BC8400204005002080B584B000AF786011
:102A10000023FB602A4B01221A60294B10225A60C6
:102A2000274B01229A60264B0022DA604FF6FF7294
:102A30002349244807F028FB012000F05BFB204BD2
:102A400002221A601E4B10225A601D4B01229A600E
:102A50001B4B0022DA604FF6FF721949194807F044
:102A600013FB174B03221A60154B10225A60144BAC
:102A700008229A60124B0022DA604FF6FF7210496A
:102A8000104807F001FB4FF40C73FB600C4B042261
:102A90001A600B4B10225A60094B01229A60FB68A6
:102AA000074AD3604FF6FF720549064807F0ECFA73
:102AB0007968044807F01DFB00BF1037BD4680BD94
:102AC000D88400208884002080B590B000AF786062
:102AD00039607B68002B00F004810023BB62834BCC
:102AE0009B6B824A43F001039363804B9B6B03F023
:102AF0000103BB62BB6A00237B627C4B1B6B7B4A7E
:102B000043F480031363794B1B6B03F480037B62F4
:102B10007B6A00233B62754B1B6B744A43F00403D2
:102B20001363724B1B6B03F004033B623B6A00238D
:102B3000FB616E4B1B6B6D4A43F0080313636B4BD9
:102B40001B6B03F00803FB61FB690023BB61674B50
:102B50001B6B664A43F010031363644B1B6B03F05B
:102B60001003BB61BB6900237B61604B1B6B5F4A39
:102B700043F0200313635D4B1B6B03F020037B6169
:102B80007B6900233B61594B1B6B584A43F0400360
:102B90001363564B1B6B03F040033B613B690023FF
:102BA000FB60524B1B6B514A43F0800313634F4B46
:102BB0001B6B03F08003FB60FB680023BB604B4B87
:102BC0001B6B4A4A43F480731363484B1B6B03F43B
:102BD0008073BB60BB6802233B6301237B630223DA
:102BE000BB630C23FB630123FB6207F12C03194633
:102BF0003F4801F0FDFC4CF20373FB6207F12C032C
:102C000019463C4801F0F4FC4FF68373FB6207F170
:102C10002C031946384801F0EBFC4FF63F03FB62EA
:102C200007F12C031946354801F0E2FC48F2331352
:102C3000FB6207F12C031946314801F0D9FC4FF62D
:102C40000C73FB6207F12C0319462E4801F0D0FCEF
:102C500040F2FF63FB6207F12C0319462A4801F09A
:102C6000C7FC2A4B00225A60284B80229A60274BCF
:102C70004FF40072DA60254B4FF480621A61234BE7
:102C80004FF480525A61214B4FF480429A611F4B9E
:102C90000022DA611D4B4FF400321A621B4B0022F6
:102CA0005A621A4B03229A62184B0022DA62174BBF
:102CB00000221A63154B164A1A607B68134A1A637E
:102CC000124A7B689363114800F0C8FB0F4800F07C
:102CD00017FB00220521382000F0E8FA382000F028
:102CE00001FB00BF4037BD4680BD00BF0038024039
:102CF00000080240000C0240001002400014024094
:102D000000180240001C024000200240E88400201D
:102D10001064024080B584B000AF03460A46FB80D1
:102D20001346BB800023FB730023BB73274B1B6838
:102D3000274A127892B210469847244B5B68542079
:102D4000984703467B737B7B112B09D01F4B5B6835
:102D5000702098470346BB731D4B70221A7002E027
:102D60001B4B54221A707B7B112B05D0BB7B112B84
:102D700002D0BB7BD82B21D1164B144A1A60FA889B
:102D8000BB889A4203D2144B01221A7002E0124B04
:102D90000C221A70FB7B002B12D10E4B1B689B6818
:102DA0000B4A127892B2104698470A4B1B68DB68B0
:102DB000074A127892B21046984701E00323FB734A
:102DC000FB7B18461037BD4680BD00BF18050020AC
:102DD0004D850020488500204C85002090B589B0A5
:102DE00000AF78600023FB76814B1B681B69814A2A
:102DF000127892B21046984703461A467B681A70BA
:102E00007B681B78002B00F0EE800023FB61E3E081
:102E1000774B1B685B69774A127890B207F1100113
:102E2000FA6952008C1807F10C01FA6952000A4441
:102E300021469847704B1B7803F00803002B19D0EC
:102E4000FB695B0020333B4433F8103C3B83FB6958
:102E50005B0020333B4433F8142CFB695B002033C8
:102E60003B4423F8102CFB695B0020333B443A8B36
:102E700023F8142C604B1B7803F00203002B0FD0B7
:102E8000FB695B0020333B4433F8103CC3F54773C8
:102E900003339AB2FB695B0020333B4423F8102CC8
:102EA000554B1B7803F00403002B0FD0FB695B002C
:102EB00020333B4433F8143CC3F5EF7301339AB22B
:102EC000FB695B0020333B4423F8142CFB695B0057
:102ED00020333B4433F8103C1946484AFB6952F80A
:102EE000233099420DD9FB695B0020333B4433F812
:102EF000102C4249FB6951F823309BB2D31A9BB284
:102F00000CE03E4AFB6952F823309AB2FB695B0041
:102F100020333B4433F8103CD31A9BB2FB82FB694D
:102F20005B0020333B4433F8143C1946344AFB69B8
:102F300052F8233099420DD9FB695B0020333B44A2
:102F400033F8142C2E49FB6951F823309BB2D31A65
:102F50009BB20CE02A4AFB6952F823309AB2FB6913
:102F60005B0020333B4433F8143CD31A9BB2BB8242
:102F7000FA8ABB8A1344052B15DDFB695B002033FD
:102F80003B4433F8103C19461C4AFB6942F82310B5
:102F9000FB695B0020333B4433F8143C1946184A64
:102FA000FB6942F82310154AFB6952F8233099B2A5
:102FB0007A68FB695B0013440A465A80104AFB6931
:102FC00052F8233099B27A68FB695B0013440A46D1
:102FD000DA80FB690133FB617B681B781A46FB6969
:102FE0009342FFF415AFFB7E18462437BD4690BDD3
:102FF000488500204D8500204C850020508500200C
:103000005885002080B400AF164BD3F88830154A9D
:1030100043F47003C2F88830134B1B68124A43F024
:1030200001031360104B00229A600F4B1B680E4A7D
:1030300023F0847323F4803313600B4B0B4A5A60E4
:10304000094B1B68084A23F480231360064B0022B7
:10305000DA60044B4FF000629A6000BFBD465DF835
:10306000047B704700ED00E000380240103000247F
:1030700080B500AF0E4B1B680D4A43F4007313601C
:103080000B4B1B680A4A43F480631360084B1B68B0
:10309000074A43F480731360032000F0FCF80F200C
:1030A000FEF738F805F047F80023184680BD00BF4A
:1030B000003C024080B400AF064B1B781A46064B1A
:1030C0001B681344044A136000BFBD465DF8047BCF
:1030D000704700BF4C0500206085002080B400AF21
:1030E000034B1B681846BD465DF8047B704700BF64
:1030F0006085002080B584B000AF7860FFF7EEFFF8
:10310000B8607B68FB60FB68B3F1FF3F05D00A4BFA
:103110001B781A46FB681344FB6000BFFFF7DEFF15
:103120000246BB68D31AFA689A42F7D800BF00BFBC
:103130001037BD4680BD00BF4C05002080B485B06F
:1031400000AF78607B6803F00703FB600C4BDB6823
:10315000BB60BA684FF6FF031340BB60FB681A02FE
:10316000BB68134343F0BF6343F40033BB60044ABE
:10317000BB68D36000BF1437BD465DF8047B704761
:1031800000ED00E080B400AF044BDB681B0A03F0E5
:1031900007031846BD465DF8047B704700ED00E06C
:1031A00080B483B000AF0346FB7197F90730002B62
:1031B0000BDBFB7903F01F02074997F907305B0926
:1031C000012000FA02F241F8232000BF0C37BD466F
:1031D0005DF8047B704700BF00E100E080B483B07D
:1031E00000AF03463960FB7197F90730002B0ADB0B
:1031F0003B68DAB20C4997F907301201D2B20B449E
:1032000083F800230AE03B68DAB20849FB7903F04F
:103210000F03043B1201D2B20B441A7600BF0C37E5
:10322000BD465DF8047B704700E100E000ED00E082
:1032300080B489B000AFF860B9607A60FB6803F0D1
:103240000703FB61FB69C3F10703042B28BF0423B9
:10325000BB61FB690433062B02D9FB69033B00E029
:1032600000237B614FF0FF32BB6902FA03F3DA43BC
:10327000BB681A407B699A404FF0FF317B6901FAC5
:1032800003F3D9437B680B40134318462437BD46EC
:103290005DF8047B704780B582B000AF78607868D5
:1032A000FFF74CFF00BF0837BD4680BD80B586B034
:1032B00000AF0346B9607A60FB7300237B61FFF7C0
:1032C00061FF78617A68B9687869FFF7B1FF0246F3
:1032D00097F90F3011461846FFF780FF00BF1837E7
:1032E000BD4680BD80B582B000AF0346FB7197F943
:1032F00007301846FFF754FF00BF0837BD4680BDB2
:1033000080B586B000AF786000237B61FFF7E6FEF2
:1033100038617B68002B01D1012399E07B68022290
:1033200083F835207B68002283F834207B681B6893
:103330001A687B681B6822F001021A600FE0FFF731
:10334000CDFE02463B69D31A052B08D97B682022A3
:103350005A657B68032283F83520032378E07B6875
:103360001B681B6803F00103002BE8D17B681B6816
:103370001B687B617A69384B13407B617B685A68B4
:103380007B689B681A437B68DB681A437B681B6910
:103390001A437B685B691A437B689B691A437B68A5
:1033A000DB691A437B681B6A13437A6913437B61A9
:1033B0007B685B6A042B07D17B68DA6A7B681B6BCE
:1033C00013437A6913437B617B681B687A691A60CF
:1033D0007B681B685B697B617B6923F007037B610A
:1033E0007B685B6A7A6913437B617B685B6A042B49
:1033F00017D17B689B6A7A6913437B617B68DB6AC0
:10340000002B0ED0786800F0D9FA0346002B08D0C4
:103410007B6840225A657B68012283F835200123AE
:1034200016E07B681B687A695A61786800F090FA48
:103430000346FB607B68DB6D3F229A40FB689A6025
:103440007B6800225A657B68012283F835200023BF
:1034500018461837BD4680BD3F8010F080B584B057
:1034600000AF78607B68002B01D1012350E07B68BE
:1034700093F83530DBB2022B01D1022348E07B68A0
:103480001B681A687B681B6822F001021A607B685F
:103490001B6800221A607B681B6800225A607B68E8
:1034A0001B6800229A607B681B680022DA607B68D8
:1034B0001B6800221A617B681B6821225A617868A8
:1034C00000F046FA0346FB607B680022DA637B6803
:1034D00000221A647B6800225A647B6800229A6486
:1034E0007B680022DA647B6800221A657B68DB6DEA
:1034F0003F229A40FB689A607B6800225A657B688D
:10350000002283F835207B68002283F834200023D2
:1035100018461037BD4680BD80B584B000AF7860D6
:103520007B689B6DFB60FFF7D9FDB8607B6893F803
:103530003530DBB2022B08D07B6880225A657B686D
:10354000002283F83420012352E07B681B681A684C
:103550007B681B6822F016021A607B681B685A6938
:103560007B681B6822F080025A617B681B6C002B11
:1035700003D17B689B6C002B07D07B681B681A68A3
:103580007B681B6822F008021A607B681B681A6857
:103590007B681B6822F001021A6013E0FFF79EFDB2
:1035A0000246BB68D31A052B0CD97B6820225A65CA
:1035B0007B68032283F835207B68002283F834205F
:1035C000032315E07B681B681B6803F00103002BD5
:1035D000E4D17B68DB6D3F229A40FB689A607B6890
:1035E000012283F835207B68002283F834200023F1
:1035F00018461037BD4680BD80B483B000AF7860F8
:103600007B6893F83530DBB2022B04D07B688022D4
:103610005A6501230CE07B68052283F835207B681E
:103620001B681A687B681B6822F001021A6000237D
:1036300018460C37BD465DF8047B704780B586B0F0
:1036400000AF78600023BB608E4B1B688E4AA2FBE4
:1036500003239B0A7B617B689B6D3B613B691B6815
:10366000FB607B68DB6D08229A40FB681340002BEF
:103670001AD07B681B681B6803F00403002B13D06F
:103680007B681B681A687B681B6822F004021A605A
:103690007B68DB6D08229A403B699A607B685B6DB2
:1036A00043F001027B685A657B68DB6D01229A401A
:1036B000FB681340002B12D07B681B685B6903F02A
:1036C0008003002B0BD07B68DB6D01229A403B69A5
:1036D0009A607B685B6D43F002027B685A657B6889
:1036E000DB6D04229A40FB681340002B12D07B68EC
:1036F0001B681B6803F00203002B0BD07B68DB6D9B
:1037000004229A403B699A607B685B6D43F0040237
:103710007B685A657B68DB6D10229A40FB6813401A
:10372000002B43D07B681B681B6803F00803002B49
:103730003CD07B68DB6D10229A403B699A607B68C5
:103740001B681B6803F48023002B18D07B681B6860
:103750001B6803F40023002B08D17B681B6C002B33
:1037600024D07B681B6C786898471FE07B689B6C53
:10377000002B1BD07B689B6C7868984716E07B68B1
:103780001B681B6803F48073002B07D17B681B68E0
:103790001A687B681B6822F008021A607B681B6C41
:1037A000002B03D07B681B6C786898477B68DB6DC7
:1037B00020229A40FB681340002B00F08F807B682A
:1037C0001B681B6803F01003002B00F087807B68E8
:1037D000DB6D20229A403B699A607B6893F8353014
:1037E000DBB2052B36D17B681B681A687B681B68C7
:1037F00022F016021A607B681B685A697B681B6896
:1038000022F080025A617B681B6C002B03D17B681D
:103810009B6C002B07D07B681B681A687B681B6851
:1038200022F008021A607B68DB6D3F229A403B69F8
:103830009A607B68012283F835207B68002283F838
:1038400034207B681B6D002B7ED07B681B6D7868F5
:10385000984779E07B681B681B6803F48023002B82
:103860001DD07B681B681B6803F40023002B0DD15F
:103870007B685B6C002B31D07B685B6C7868984709
:103880002CE000BF44050020B5814E1B7B68DB6B3C
:10389000002B23D07B68DB6B786898471EE07B6841
:1038A0001B681B6803F48073002B0FD17B681B68B7
:1038B0001A687B681B6822F010021A607B6801227C
:1038C00083F835207B68002283F834207B68DB6B2B
:1038D000002B03D07B68DB6B786898477B685B6D57
:1038E000002B32D07B685B6D03F00103002B22D0EC
:1038F0007B68052283F835207B681B681A687B6823
:103900001B6822F001021A60BB680133BB607A6950
:103910009A4207D37B681B681B6803F00103002BE6
:10392000F2D100E000BF7B68012283F835207B687C
:10393000002283F834207B68DB6C002B05D07B6889
:10394000DB6C7868984700E000BF1837BD4680BD43
:1039500080B485B000AF78607B681B68DBB2103B39
:10396000144AA2FB03231B09FB60134AFB681344A0
:103970001B781A467B68DA65FB68032B09D97B68DC
:103980001B6823F47F7323F003031A1D7B689A6579
:1039900007E07B681B6823F47F7323F003037A68D6
:1039A00093657B689B6D18461437BD465DF8047BB4
:1039B000704700BFABAAAAAA70E7070880B485B019
:1039C00000AF78600023FB737B689B6ABB607B68F9
:1039D0009B69002B1FD1BB68032B56D801A252F85C
:1039E00023F000BFF5390008073A0008F539000850
:1039F0008B3A00087B68DB6A03F08073002B46D0AB
:103A00000123FB7343E07B68DB6AB3F1C07F40D1E5
:103A10000123FB733DE07B689B69B3F5005F21D117
:103A2000BB68032B37D801A252F823F03D3A0008B7
:103A3000433A00083D3A0008553A00080123FB7359
:103A400030E07B68DB6A03F08073002B25D0012314
:103A5000FB7322E07B68DB6AB3F1C07F1FD10123D7
:103A6000FB731CE0BB68022B03D9BB68032B03D09C
:103A700018E00123FB7315E07B68DB6A03F08073B9
:103A8000002B0ED00123FB730BE000BF0AE000BF48
:103A900008E000BF06E000BF04E000BF02E000BF96
:103AA00000E000BFFB7B18461437BD465DF8047B81
:103AB000704700BF80B485B000AFF860B9607A602D
:103AC0003B60BB689A017B681A433B681B021A4340
:103AD000BB691B041A43FB68DA6600BF1437BD4696
:103AE0005DF8047B704780B586B000AFF860B960C0
:103AF0007A603B60FFF7F2FA786109E0FFF7EEFACF
:103B000002467B69D31AB3F57A7F01D9032315E006
:103B1000FB681B685B6F03F00103002BEED0BB68F2
:103B20009A017B681A433B681B0242EA03013B6A25
:103B30001A04FB681B680A43DA6600231846183724
:103B4000BD4680BD80B588B000AF786039607B68C5
:103B5000002B01D101230BE17B685B7CDBB2002BE6
:103B600002D1786800F07EF97B6803225A74002342
:103B70003B617B681B68D3F830247B681B6842F08C
:103B80008072C3F830247B681B68D3F8303403F0AC
:103B900080733B613B69FFF7A1FAF86109E0FFF729
:103BA0009DFA0246FB69D31AB3F57A7F01D9032344
:103BB000DEE07B681B68D3F80C3403F48053002BE1
:103BC000EDD07B681B68D3F830347A68126823F430
:103BD0005E3323F4FE73C2F830347B681B68D3F87D
:103BE00030143B681B689A003B685B68DB021A4331
:103BF0003B689B681B041A437B681B680A43C3F835
:103C000030240023FB607B681B68D3F830247B687A
:103C10001B6842F00102C3F830247B681B68D3F8AC
:103C2000303403F00103FB60FB680120FFF762FA08
:103C3000FFF754FAF86109E0FFF750FA0246FB6912
:103C4000D31AB3F57A7F01D9032391E07B681B680F
:103C5000D3F80C3403F48073002BEDD07B681B6821
:103C6000D3F8A0207B681B6842F00602C3F8A020AE
:103C70007B681B68D3F894207B681B6822F00302E2
:103C8000C3F894207B681B68D3F894207B685B683A
:103C90001A437B681B6842F00102C3F894207B68DA
:103CA0001B68D3F8A4207B681B6822F00302C3F8CA
:103CB000A4207B681B68D3F8A4107B68DA687B6853
:103CC0001B680A43C3F8A4207B681B689A687B685A
:103CD0001B6822F0FF029A607B681B6899687B680A
:103CE0009A687B681B680A439A603B685B68002B94
:103CF00002D03B685B6800E00123BB61BB691E4AE0
:103D000003FB02F23B689B6803F003039A403B68A5
:103D10001B684FF4FA5101FB03F3B2FBF3F37B6131
:103D20007B681B68D3F818247B681B6822F03F026D
:103D3000C3F818247B681B68D3F818147B681B68C9
:103D40007A690A43C3F818247B681B680022C3F809
:103D5000C4207B681B680022C3F8C8207B6800224F
:103D60009A617B6800225A617B6801225A740023A1
:103D700018462037BD4680BD00093D0080B586B09D
:103D800000AF78607B68002B01D1012366E07B687F
:103D900003225A7400237B617B681B68D3F80424D8
:103DA0007B681B6822F00802C3F804247B681B6848
:103DB000D3F8043403F008037B617B6900233B6183
:103DC0007B681B685A687B681B6822F001025A6096
:103DD0007B681B685B6803F001033B613B697B68A0
:103DE0001B68D3F8A0207B681B6822F00602C3F88A
:103DF000A0200023FB607B681B68D3F830247B681D
:103E00001B6822F00102C3F830247B681B68D3F8DA
:103E1000303403F00103FB60FB680023BB607B6868
:103E20001B68D3F830247B681B6822F08072C3F8CB
:103E300030247B681B68D3F8303403F08073BB6098
:103E4000BB68786800F018F87B6800225A617B68CC
:103E500000225A747B6800221A740023184618370F
:103E6000BD4680BD80B483B000AF786000BF0C3722
:103E7000BD465DF8047B704780B483B000AF7860C6
:103E800000BF0C37BD465DF8047B704780B584B039
:103E900000AF78607B681B68D3F80C3403F0010333
:103EA000002B0FD07B681B68D3F8083403F00103A4
:103EB000002B07D07B681B680122C3F810247868A8
:103EC0000AF0AEFF7B681B68D3F80C3403F00203E2
:103ED000002B0FD07B681B68D3F8083403F0020373
:103EE000002B07D07B681B680222C3F81024786877
:103EF0000AF0E0FF7B689B69002B00F08C807B68F8
:103F00001B68D3F8BC30FB607B681B68D3F8C430F7
:103F1000FA681340FB607B681B68D3F8C030BB6055
:103F20007B681B68D3F8C830BA681340BB60FB6875
:103F30009BB2002B05D07B685B6943F001027B6874
:103F40005A61FB6803F4F813002B05D07B685B69AA
:103F500043F002027B685A61BB6803F00103002B47
:103F600005D07B685B6943F004027B685A61BB68DB
:103F700003F00203002B05D07B685B6943F0080265
:103F80007B685A61BB6803F00C03002B05D07B688B
:103F90005B6943F010027B685A61BB6803F0100351
:103FA000002B05D07B685B6943F020027B685A6177
:103FB000BB6803F02003002B05D07B685B6943F0EE
:103FC00040027B685A61BB6803F04003002B05D0B8
:103FD0007B685B6943F080027B685A61BB6803F0D1
:103FE0008003002B05D07B685B6943F480727B689B
:103FF0005A61BB6803F4F853002B05D07B685B69FA
:1040000043F400727B685A617B685B69002B02D0C5
:10401000786800F004F800BF1037BD4680BD80B45A
:1040200083B000AF786000BF0C37BD465DF8047BFD
:10403000704780B483B000AF786039607B681B7CC8
:10404000012B01D10223C5E07B6801221A747B6831
:104050001B685A6B7B681B6842F001025A637B68DD
:104060001B68D3F800247B681B6822F00102C3F8A8
:1040700000247B681B68D3F800247B681B6842F02F
:104080000102C3F800247B681B68DA687B681B6840
:1040900022F00302DA607B681B68D9683B681A6803
:1040A0007B681B680A43DA607B681B685A697B6817
:1040B0001B6822F007025A617B681B6859693B68DC
:1040C000DA693B689B691A433B685B691A437B6802
:1040D0001B680A435A617B681B681A697B681B6806
:1040E00022F00F021A617B681B6819693B685A68E5
:1040F0007B681B680A431A617B681B68D3F800243D
:104100007B681B6822F00E02C3F800247B681B68E2
:10411000D3F800143B685B685A007B681B680A434D
:10412000C3F800247B681B685B6E7A6812681B0CFE
:104130001B0453667B681B68596E3B689A687B68F2
:104140001B680A435A667B681B68D3F800247B68A7
:104150001B6822F0F002C3F800247B681B68D3F8C8
:1041600000143B68DA683B681B691A433B685B6A6A
:104170001A433B681B6A1A437B681B680A43C3F8EF
:1041800000247B681B689A6E7B681B6822F0010222
:104190009A667B681B68996E3B689A6A7B681B68A5
:1041A0000A439A667B681B68D3F808247B681B68FF
:1041B00042F00102C3F808247B681B68D3F8082486
:1041C0007B681B6842F00202C3F808247B68002267
:1041D0001A74002318460C37BD465DF8047B7047FF
:1041E00080B483B000AF786039607B681B7C012BA2
:1041F00001D1022349E07B6801221A747B681B68A5
:10420000996E7B681A68244B0B4093667B681B6829
:10421000996E3B681A683B685B681A433B689B6809
:104220001A433B68DB681A433B681B691A433B68C7
:104230005B691A433B689B691A433B68DB691A4315
:104240003B681B6A1A433B685B6A1A433B689B6A7C
:104250001A433B68DB6A1A437B681B680A439A6609
:104260007B681B689A6E7B681B6822F002029A6664
:104270007B681B68996E3B681A6B7B681B680A43F6
:104280009A667B6800221A74002318460C37BD46D4
:104290005DF8047B704700BFFF80F0FE80B483B000
:1042A00000AF786039607B681B7C012B01D1022351
:1042B00016E07B6801221A747B681B68DA6A7B68E7
:1042C0001B6822F01F02DA627B681B68D96A7B6870
:1042D0001B683A680A43DA627B6800221A7400237A
:1042E00018460C37BD465DF8047B704780B485B036
:1042F00000AF786039607B681B7C012B01D1022301
:1043000058E07B6801221A743B681A683B685B6856
:10431000934238BF1346FB607B681B68D3F8982034
:104320007B681B6802F0FC22C3F898207B681B683E
:10433000D3F89810FB681A04FB681A437B681B6863
:104340000A43C3F898207B681B68D3F89C207B68DD
:104350001B6802F40042C3F89C207B681B68D3F8FA
:104360009C103B681A693B68DB681B041A433B6876
:104370009B681B061A437B681B680A43C3F89C2092
:104380007B681B68D3F8A4207B681B6822F47F42FB
:10439000C3F8A4207B681B68D3F8A4103B685B6952
:1043A0001A027B681B680A43C3F8A4207B680022BA
:1043B0001A74002318461437BD465DF8047B704715
:1043C00080B485B000AF78607B681B7C012B01D185
:1043D00002232BE07B6801221A740023FB607B68B8
:1043E0001B685A687B681B6842F001025A607B6850
:1043F0001B685B6803F00103FB60FB680023BB6084
:104400007B681B68D3F804247B681B6842F00802B1
:10441000C3F804247B681B68D3F8043403F0080352
:10442000BB60BB687B6800221A74002318461437EF
:10443000BD465DF8047B704780B483B000AF786000
:104440007B681B7C012B01D1022310E07B680122D9
:104450001A747B681B68D3F804247B681B6842F0DD
:104460000402C3F804247B6800221A74002318464F
:104470000C37BD465DF8047B704780B588B002AF4D
:10448000F860B9607A603B60FB681B7C012B01D14E
:10449000022310E0FB6801221A743B6A00933B6818
:1044A0007A68B968F868FFF71EFB0346FB75FB687E
:1044B00000221A74FB7D18461837BD4680BD80B5B2
:1044C0008CB002AFF860B9607A603B607B6BBB6117
:1044D000FB681B7C012B01D1022384E0FB680122D5
:1044E0001A74FEF7FBFD78610CE0FEF7F7FD02465B
:1044F0007B69D31AB3F57A7F04D9FB6800221A745A
:10450000032370E0FB681B685B6F03F00103002B63
:10451000EBD03B6BFB613B68032B28BF03233B6164
:1045200000233B620FE0BA693B6A13441B781A46CA
:104530003B6A0133DB0002FA03F3FA691343FB61C0
:104540003B6A01333B623A6A3B699A42EBD3FB68B0
:104550001B68FA691A673A683B69D31A7B62BA69C1
:104560003B691344BB6128E07B6A042B28BF04230A
:104570003B610023FB6100233B620EE0BA693B6AAA
:1045800013441B781A463B6ADB0002FA03F3FA690C
:104590001343FB613B6A01333B623A6A3B699A42CF
:1045A000ECD3FB681B68FA691A677A6A3B69D31A0D
:1045B0007B62BA693B691344BB617B6A002BD3D130
:1045C000FB6818683B680133DAB23B6801331B0AA9
:1045D000DBB2009313467A68B968FFF76BFAFB68A1
:1045E00000221A74002318462837BD4680BD0000FB
:1045F00080B489B000AF7860396000237B6100230C
:104600003B610023BB610023FB6177E10122FB6971
:1046100002FA03F37B613B681B687A6913403B61D4
:104620003A697B699A4240F066813B685B6803F0B7
:104630000303012B05D03B685B6803F00303022BE7
:1046400030D17B689B68BB61FB695B00032202FA87
:1046500003F3DB43BA691340BB613B68DA68FB696B
:104660005B0002FA03F3BA691343BB617B68BA6962
:104670009A607B685B68BB610122FB6902FA03F305
:10468000DB43BA691340BB613B685B681B0903F0FD
:104690000102FB6902FA03F3BA691343BB617B6849
:1046A000BA695A603B685B6803F00303032B17D0B9
:1046B0007B68DB68BB61FB695B00032202FA03F3E2
:1046C000DB43BA691340BB613B689A68FB695B00D6
:1046D00002FA03F3BA691343BB617B68BA69DA6013
:1046E0003B685B6803F00303022B23D1FB69DA0804
:1046F0007B68083253F82230BB61FB6903F0070383
:104700009B000F2202FA03F3DB43BA691340BB613B
:104710003B681A69FB6903F007039B0002FA03F385
:10472000BA691343BB61FB69DA087B680832B9696F
:1047300043F822107B681B68BB61FB695B000322A6
:1047400002FA03F3DB43BA691340BB613B685B6861
:1047500003F00302FB695B0002FA03F3BA69134337
:10476000BB617B68BA691A603B685B6803F44033DD
:10477000002B00F0C0800023FB60664B5B6C654A39
:1047800043F480435364634B5B6C03F48043FB60EE
:10479000FB68614AFB699B08023352F82330BB6116
:1047A000FB6903F003039B000F2202FA03F3DB43D0
:1047B000BA691340BB617B68584A934237D07B6823
:1047C000574A934231D07B68564A93422BD07B683C
:1047D000554A934225D07B68544A93421FD07B6848
:1047E000534A934219D07B68524A934213D07B6854
:1047F000514A93420DD07B68504A934207D07B6860
:104800004F4A934201D1092312E00A2310E0082302
:104810000EE007230CE006230AE0052308E004234A
:1048200006E0032304E0022302E0012300E000236A
:10483000FA6902F0030292009340BA691343BB6124
:104840003549FB699B080233BA6941F823203D4B87
:104850009B68BB613B69DB43BA691340BB613B6842
:104860005B6803F48013002B03D0BA693B691343E0
:10487000BB61344ABB699360324BDB68BB613B6907
:10488000DB43BA691340BB613B685B6803F4001308
:10489000002B03D0BA693B691343BB61294ABB694A
:1048A000D360284B5B68BB613B69DB43BA6913404B
:1048B000BB613B685B6803F40033002B03D0BA692B
:1048C0003B691343BB611F4ABB6953601D4B1B68A7
:1048D000BB613B69DB43BA691340BB613B685B6802
:1048E00003F48033002B03D0BA693B691343BB61E7
:1048F000144ABB691360FB690133FB61FB690F2B31
:104900007FF684AE00BF00BF2437BD465DF8047B50
:10491000704700BF003802400038014000000240EC
:104920000004024000080240000C02400010024057
:104930000014024000180240001C02400020024007
:1049400000240240003C014080B483B000AF786096
:104950000B467B8013467B707B78002B03D07A88D4
:104960007B689A6103E07B881A047B689A6100BFC8
:104970000C37BD465DF8047B704780B485B000AF4E
:1049800078600B467B807B685B69FB607A88FB689C
:1049900013401A04FB68D9437B880B401A437B6899
:1049A0009A6100BF1437BD465DF8047B704780B53F
:1049B00086B000AF78607B681B683B613B69FB6039
:1049C0007B681B68184606F085F80346012B40F00B
:1049D000FB807B681B68184606F048F80346002BEE
:1049E00000F0F1807B681B68184606F03FF803462C
:1049F00003F40013B3F5001F04D17B681B684FF468
:104A000000125A617B681B68184606F02FF80346AF
:104A100003F48013B3F5801F04D17B681B684FF447
:104A200080125A617B681B68184606F01FF803461F
:104A300003F08063B3F1806F04D17B681B684FF093
:104A400080625A617B681B68184606F00FF80346BF
:104A500003F00203022B03D17B681B6802225A6118
:104A60007B681B68184606F001F8034603F0005304
:104A7000B3F1005F20D17B681B684FF000525A6190
:104A8000FB6803F588631B6803F00103002B13D157
:104A90001021386905F032FF386905F061FF7B6845
:104AA0005B7A022B05D17B681B680121184606F052
:104AB0001FF878680AF023FE7B681B68184605F02B
:104AC000D5FF034603F08073B3F1807F02D178688D
:104AD00001F087FC7B681B68184605F0C7FF03469A
:104AE00003F00803082B06D178680AF0ECFD7B6818
:104AF0001B6808225A617B681B68184605F0B6FFE0
:104B0000034603F00073B3F1007F39D17B681B6863
:104B1000184606F02AF8B86000237B6125E07B691F
:104B200003F00F03BA6822FA03F303F00103002B2A
:104B300018D07B695A01FB68134403F5A0631B6816
:104B400003F40043B3F5004F06D17B69DBB219468D
:104B5000786800F059F805E07B69DBB2194678689F
:104B600000F0BBFE7B6901337B617B685B791A4691
:104B70007B699342D3D37B681B684FF000725A6104
:104B80007B681B68184605F071FF034603F01003AD
:104B9000102B01D1012300E00023002B14D07B68EF
:104BA0001B689A697B681B6822F010029A6178681A
:104BB00001F038FB7B681B689A697B681B6842F0D0
:104BC00010029A6100E000BF1837BD4680BD80B575
:104BD00082B000AF78607B6893F8D433012B01D1A9
:104BE00002230DE07B68012283F8D4237B681B68D5
:104BF000184606F0EBF87B68002283F8D4230023E4
:104C000018460837BD4680BD80B586B000AF7860D5
:104C10000B46FB707B681B687B617B693B617B6833
:104C20001B68FA781146184605F033FF034603F077
:104C30000403042B1AD1FB785A013B69134403F592
:104C4000A0631A4604239360FA78796813461B011F
:104C50009B1A9B000B444D3307221A707B681B681C
:104C6000FA781146184605F091FF9EE07B681B68B4
:104C7000FA781146184605F00CFF034603F48073DA
:104C8000B3F5807F1BD1FB785A013B69134403F5D0
:104C9000A0631A464FF480739360FA7879681346DC
:104CA0001B019B1A9B000B444D3308221A707B6832
:104CB0001B68FA781146184605F068FF75E07B68B6
:104CC0001B68FA781146184605F0E3FE034603F028
:104CD0000803082B1AD1FB785A013B69134403F5EA
:104CE000A0631A4608239360FA78796813461B017B
:104CF0009B1A9B000B444D3306221A707B681B687D
:104D0000FA781146184605F041FF4EE07B681B68B3
:104D1000FA781146184605F0BCFE034603F480639A
:104D2000B3F5806F1BD1FB785A013B69134403F53F
:104D3000A0631A464FF480639360FA78796813464B
:104D40001B019B1A9B000B444D3309221A707B6890
:104D50001B68FA781146184605F018FF25E07B68B5
:104D60001B68FA781146184605F093FE034603F0D7
:104D70008003802B19D1FB785A013B69134403F55A
:104D8000A0631A4680239360FA78796813461B0162
:104D90009B1A9B000B444D3307221A707B681B68DB
:104DA000FA781146184605F0F1FE7B681B68FA7820
:104DB0001146184605F06DFE034603F40073B3F583
:104DC000007F12D17B681B68FA781146184605F0FF
:104DD000DDFEFB785A013B69134403F5A0631A46D4
:104DE0004FF40073936000F075BD7B681B68FA7820
:104DF0001146184605F04DFE034603F00103012B52
:104E000040F02881FB785A013B69134403F5A06305
:104E10001A4620239360FA78796813461B019B1A7F
:104E20009B000B441B331B78012B19D1FA7879684E
:104E300013461B019B1A9B000B441B3300221A7064
:104E4000FB785A013B69134403F5A0635B68FA7869
:104E500051013A690A4402F5A06223F48033536099
:104E60007B689B79002B1BD0FA78796813461B016D
:104E70009B1A9B000B4430331968FB785A013B693D
:104E8000134403F5A0631B69C3F31203FA78C91A2C
:104E9000786813461B019B1A9B0003443833196042
:104EA000FA78796813461B019B1A9B000B444D331B
:104EB00001221A70FA78796813461B019B1A9B002D
:104EC0000B44443300221A60FB785A013B691344B7
:104ED00003F5A0631A4601239360FA7879681346B4
:104EE0001B019B1A9B000B4426331B78002B0AD016
:104EF000FA78796813461B019B1A9B000B442633F2
:104F00001B78022B10D17B681B68FA781146184673
:104F100005F03CFEFB785A013B69134403F5A0639E
:104F20001A46102393603DE0FA78796813461B0116
:104F30009B1A9B000B4426331B78032B0AD0FA786C
:104F4000796813461B019B1A9B000B4426331B7880
:104F5000012B27D1FB785A013B69134403F5A06369
:104F60001B68FA7851013A690A4402F5A06243F0DD
:104F700000531360FA78796813461B019B1A9B0053
:104F80000B444C3301221A70FA78796813461B01DE
:104F90009B1A9B000B444C331A78FB7819467868AF
:104FA0000AF0D7FB7B689B79012B3BD1FA787968B3
:104FB00013461B019B1A9B000B4438331968FA787F
:104FC000786813461B019B1A9B00034428331B88F7
:104FD0000B44591EFA78786813461B019B1A9B00F4
:104FE000034428331B88B1FBF3F303F00103002BC8
:104FF00000F07084FA78796813461B019B1A9B00B5
:105000000B443C331B78FA7883F00103D8B27968FB
:1050100013461B019B1A9B000B443C3302461A703B
:1050200000F058BCFA78796813461B019B1A9B0064
:105030000B443C331B78FA7883F00103D8B27968CB
:1050400013461B019B1A9B000B443C3302461A700B
:1050500000F040BC7B681B68FA781146184605F0E2
:1050600018FD034603F02003202B31D1FB785A01B1
:105070003B69134403F5A0631A4620239360FA7832
:10508000796813461B019B1A9B000B441A331B784B
:10509000012B40F01F84FA78796813461B019B1A94
:1050A0009B000B441B3301221A70FA78796813466F
:1050B0001B019B1A9B000B444D3303221A707B6823
:1050C0001B68FA781146184605F060FD00F002BC36
:1050D0007B681B68FA781146184605F0DAFC03462F
:1050E00003F00203022B40F00583FB785A013B6971
:1050F000134403F5A0631A4602239360FA78796893
:1051000013461B019B1A9B000B444D331B78012B4C
:1051100014D1FA78796813461B019B1A9B000B4443
:105120004D3302221A70FA78796813461B019B1AD4
:105130009B000B444C3301221A70CCE2FA78796858
:1051400013461B019B1A9B000B444D331B78062B07
:1051500014D1FA78796813461B019B1A9B000B4403
:105160004D3302221A70FA78796813461B019B1A94
:105170009B000B444C3305221A70ACE2FA78796834
:1051800013461B019B1A9B000B444D331B78072BC6
:105190000BD0FA78796813461B019B1A9B000B44CD
:1051A0004D331B78092B40F0A680FA7879681346B6
:1051B0001B019B1A9B000B444D3302221A70FA7894
:1051C000796813461B019B1A9B000B4444331B68F0
:1051D000591C786813461B019B1A9B0003444433F7
:1051E0001960FA78796813461B019B1A9B000B44DF
:1051F00044331B68022B43D9FA78796813461B01A4
:105200009B1A9B000B44443300221A60FA78796899
:1052100013461B019B1A9B000B441A331B78012B6E
:1052200023D1FA78796813461B019B1A9B000B4423
:105230001B3300221A70FA78796813461B019B1AF7
:105240009B000B441C3300221A70FB785A013B6907
:10525000134403F5A0635B68FA7851013A690A4484
:1052600002F5A06223F480335360FA78796813461C
:105270001B019B1A9B000B444C3304221A7029E239
:10528000FA78796813461B019B1A9B000B444C3338
:1052900002221A70FA78796813461B019B1A9B0048
:1052A0000B4426331B78002B0BD0FA787968134611
:1052B0001B019B1A9B000B4426331B78022B40F0EA
:1052C0000982FB785A013B69134403F5A0631B680C
:1052D000FB60FB6823F08043FB60FB6843F0004306
:1052E000FB60FB785A013B69134403F5A0631A463F
:1052F000FB681360EEE1FA78796813461B019B1A8C
:105300009B000B444D331B78052B40F0C880FA7886
:10531000796813461B019B1A9B000B444D330222F4
:105320001A70FA78796813461B019B1A9B000B448C
:105330001B331B78012B40F0CE81FA787968134635
:105340001B019B1A9B000B4426331B78032B6BD14C
:10535000FA78796813461B019B1A9B000B4448336B
:105360001B68591C786813461B019B1A9B00034459
:1053700048331960FA78796813461B019B1A9B0021
:105380000B4448331B68022B43D9FA7879681346DB
:105390001B019B1A9B000B44483300221A60FA78C9
:1053A000796813461B019B1A9B000B441B33002298
:1053B0001A70FA78796813461B019B1A9B000B44FC
:1053C00044331B68022B09D8FA78796813461B010D
:1053D0009B1A9B000B441C3301221A70FB785A0164
:1053E0003B69134403F5A0635B68FA7851013A699D
:1053F0000A4402F5A06223F480335360FA78796896
:1054000013461B019B1A9B000B444C3304221A7059
:1054100014E0FA78796813461B019B1A9B000B4431
:105420004C3302221A7009E0FA78796813461B019E
:105430009B1A9B000B444C3302221A70FA7879684D
:1054400013461B019B1A9B000B4426331B78002B31
:105450000BD0FA78796813461B019B1A9B000B440A
:1054600026331B78022B40F03681FB785A013B69CA
:10547000134403F5A0631B68FB60FB6823F08043C3
:10548000FB60FB6843F00043FB60FB785A013B691B
:10549000134403F5A0631A46FB6813601BE1FA7816
:1054A000796813461B019B1A9B000B444D331B78F4
:1054B000032B40F08180FA78796813461B019B1A10
:1054C0009B000B444D3302221A70FA787968134618
:1054D0001B019B1A9B000B441B331B78012B40F0D4
:1054E000FA80FA78796813461B019B1A9B000B44DB
:1054F0004C3302221A70FB785A013B69134403F5BE
:10550000A0635B68FA7851013A690A4402F5A06227
:1055100043F480335360FB785A013B69134403F52D
:10552000A063DB68FA7851013A690A4402F5A06287
:1055300043F04003D360FB785A013B69134403F501
:10554000A063DB68FA7851013A690A4402F5A06267
:1055500023F02003D360FA78796813461B019B1A65
:105560009B000B4426331B78002B0BD0FA7879680C
:1055700013461B019B1A9B000B4426331B78022BFE
:1055800040F0A980FB785A013B69134403F5A063FE
:105590001B68FB60FB6823F08043FB60FB6843F003
:1055A0000043FB60FB785A013B69134403F5A06399
:1055B0001A46FB6813608EE0FA78796813461B017F
:1055C0009B1A9B000B444D331B78042B43D1FA7874
:1055D000796813461B019B1A9B000B444D33022232
:1055E0001A70FA78796813461B019B1A9B000B44CA
:1055F0004C3302221A70FA78796813461B019B1A01
:105600009B000B4426331B78002B0AD0FA7879686C
:1056100013461B019B1A9B000B4426331B78022B5D
:1056200059D1FB785A013B69134403F5A0631B6809
:10563000FB60FB6823F08043FB60FB6843F00043A2
:10564000FB60FB785A013B69134403F5A0631A46DB
:10565000FB6813603FE0FA78796813461B019B1AD8
:105660009B000B444D331B78082B26D1FA787968C0
:1056700013461B019B1A9B000B444D3302221A70E8
:10568000FA78796813461B019B1A9B000B4444333C
:105690001B68591C786813461B019B1A9B00034426
:1056A00044331960FA78796813461B019B1A9B00F2
:1056B0000B444C3304221A700DE0FA7879681346D3
:1056C0001B019B1A9B000B444D331B78022B00F0EF
:1056D000008100E000BFFA78796813461B019B1A2D
:1056E0009B000B444C331A78FB78194678680AF013
:1056F00030F8EFE07B681B68FA781146184605F031
:10570000C8F9034603F04003402B2FD1FB785A0120
:105710003B69134403F5A0631A4640239360FA786B
:10572000796813461B019B1A9B000B444D330522DD
:105730001A70FA78796813461B019B1A9B000B4478
:105740001A331B78002B09D1FA78796813461B01AC
:105750009B1A9B000B44443300221A607B681B6831
:10576000FA781146184605F011FAB3E07B681B6819
:10577000FA781146184605F08CF9034603F0100339
:10578000102B40F0A780FA78796813461B019B1A0A
:105790009B000B4426331B78032B1BD1FA787968C6
:1057A00013461B019B1A9B000B44443300221A60D2
:1057B000FA78796813461B019B1A9B000B444D3302
:1057C00004221A707B681B68FA781146184605F0A7
:1057D000DDF93FE0FA78796813461B019B1A9B00BC
:1057E0000B4426331B78002B0AD0FA7879681346CD
:1057F0001B019B1A9B000B4426331B78022B29D1DB
:10580000FA78796813461B019B1A9B000B444433BA
:1058100000221A607B689B79002B0AD0FA7879689D
:1058200013461B019B1A9B000B441B331B78012B57
:1058300010D1FA78796813461B019B1A9B000B4420
:105840004D3304221A707B681B68FA78114618469B
:1058500005F09CF9FA78796813461B019B1A9B00A6
:105860000B441B331B78012B29D1FA787968134636
:105870001B019B1A9B000B441B3300221A70FB7800
:105880005A013B69134403F5A0635B68FA78510140
:105890003A690A4402F5A06223F480335360FB782E
:1058A0005A013B69134403F5A063DB68FA785101A0
:1058B0003A690A4402F5A06243F02003D360FB7802
:1058C0005A013B69134403F5A0631A461023936001
:1058D00000E000BF1837BD4680BD80B586B000AF80
:1058E00078600B46FB707B681B687B617B693B6162
:1058F0007B681B68FA781146184605F0CAF803461B
:1059000003F00403042B1BD1FB785A013B691344B9
:1059100003F5A0631A4604239360FA787968134666
:105920001B019B1A9B000B444D3307221A707B68A6
:105930001B68FA781146184605F028F900F06FBC8C
:105940007B681B68FA781146184605F0A2F80346F2
:1059500003F02003202B40F08280FB785A013B6942
:10596000134403F5A0631A4620239360FA787968FC
:1059700013461B019B1A9B000B4419331B78012B08
:1059800024D1FA78796813461B019B1A9B000B44BB
:10599000193300221A70FA78796813461B019B1A92
:1059A0009B000B444C3302221A70FA787968134634
:1059B0001B019B1A9B000B444D3303221A707B681A
:1059C0001B68FA781146184605F0E0F8FA7879680D
:1059D00013461B019B1A9B000B441A331B78012BA7
:1059E00040F01D84FA78796813461B019B1A9B00CE
:1059F0000B441B331B78002B40F01184FA78796834
:105A000013461B019B1A9B000B4426331B78012B6A
:105A100009D0FA78796813461B019B1A9B000B4446
:105A20001B3301221A70FA78796813461B019B1AFE
:105A30009B000B444D3303221A707B681B68FA7875
:105A40001146184605F0A2F8FA78796813461B014A
:105A50009B1A9B000B44443300221A60DFE37B68EF
:105A60001B68FA781146184605F013F8034603F44C
:105A70000073B3F5007F11D1FB785A013B691344E1
:105A800003F5A0631A464FF4007393607B681B68AC
:105A9000FA781146184605F079F8C0E37B681B6870
:105AA000FA781146184604F0F4FF034603F00103A8
:105AB000012B68D1FA78796813461B019B1A9B0069
:105AC0000B44443300221A607B681B68FA78114645
:105AD000184604F0DEFF034603F04003402B12D1CA
